:020000040C00EE
:100000000088FE1F010200089902000899020008FA
:1000100099020008990200089902000800000000F7
:10002000000000000000000000000000990200082D
:1000300099020008000000009902000899020008D7
:100040009902000899020008990200089902000824
:100050009902000899020008990200089902000814
:1000600099020008000000000000000000000000ED
:100070009902000800000000990200089902000897
:1000800099020008990200089902000899020008E4
:1000900099020008990200089902000899020008D4
:1000A00099020008990200089902000899020008C4
:1000B00099020008990200089902000899020008B4
:1000C00099020008990200089902000899020008A4
:1000D0009902000899020008990200089902000894
:1000E0009902000899020008990200089902000884
:1000F0009902000899020008990200089902000874
:100100009902000899020008990200089902000863
:100110009902000899020008990200089902000853
:100120009902000899020008990200089902000843
:100130009902000899020008990200089902000833
:100140009902000899020008990200089902000823
:100150009902000899020008990200089902000813
:10016000000000000000000000000000000000008F
:1001700099020008990200089902000899020008F3
:1001800099020008990200089902000899020008E3
:1001900099020008990200089902000899020008D3
:1001A00099020008990200089902000899020008C3
:1001B00099020008990200089902000899020008B3
:1001C00099020008990200089902000899020008A3
:1001D0009902000899020008990200080000000036
:1001E0009902000899020008990200089902000883
:1001F00099020008000000009902000800000000B9
:10020000DFF874D01D4880471D4C1E4DAC4209DA02
:1002100021686268A368043BA2BFC858D050FAE7BF
:100220000C34F3E7184B194CA34208DA19685A68E2
:100230000020043AA4BF8850FBE70833F4E71448D1
:1002400080471448804700007C20000C0088FE1F77
:10025000480000007C20000C0088FE1F0000000009
:100260004888FE1F0400000000000020000000007D
:1002700000000020000000000088FE1F9D02000812
:1002800048020008600200086002000878020008C6
:10029000251F0008811E0008FEE7000098B500AF8A
:1002A000054A4FF0005314460FCB84E80F0000F0CE
:1002B00005F801F055FD98BDC4FF032080B483B05C
:1002C00000AF72B6164B174A9A60BFF34F8F62B6F3
:1002D000134A134BD3F8883043F47003C2F88830C4
:1002E0000F4A0F4B5B6923F0080353610E4B03F574
:1002F000805314331B687B607B6823F00F037B60A3
:100300007B6843F004037B60074B03F58053143391
:100310007A681A600C37BD465DF8047B704700BFF1
:1003200000ED00E0000000080010005880B584B027
:1003300000AF2F4BDB6803F48033002B3ED02D4BF6
:10034000DB6803F00103002B02D02B4BFB6002E0C3
:1003500001F0FCFCF860274B1B6803F00403002B42
:1003600020D0244B9B6803F070631B0E0133BB60ED
:10037000204B9B6803F4FE431B0A01337B601D4B3B
:100380009B6803F4FE031B0C01333B60BB683A68B7
:1003900002FB03F3FA68B2FBF3F37A6802FB03F3A0
:1003A000FB600DE0134B9B6803F07F0301333B6060
:1003B000FA683B68B2FBF3F3FB6001E00E4BFB60B5
:1003C0000B4BDB68DBB20133FA68B2FBF3F3FB6083
:1003D000074B1B6903F001030133FA68B2FBF3F327
:1003E000FB60064AFB6813601037BD4680BD00BF46
:1003F000004600501047005000366E01C0FF032039
:1004000080B485B000AFF8600B467A60FB72FB7A6F
:100410009B08DBB21846FB7A9B08DBB21A46FB68E6
:10042000043253F82220FB7A03F00303DB00194661
:10043000F8238B40DB4302EA0301FB68021D43F80B
:100440002210FB685A6FFB7A5B00194603238B402E
:10045000DB431A40FB685A67FB68374A934203D074
:10046000FB68364A93420AD1FB681A6EFB7A012177
:1004700001FA03F3DB431A40FB681A663CE07B6831
:100480005A68FB7A9A40FB685A60FB7ADB08DBB259
:100490001846FB7ADB08DBB21A46FB68103253F8C9
:1004A0002220FB7A03F007039B00194607238B40A9
:1004B000DB4302EA0301FB6800F1100243F822105B
:1004C000FB7ADB08DBB21846FB7ADB08DBB21A46A4
:1004D000FB68103253F822207B681B7A1946FB7A9E
:1004E00003F007039B0001FA03F342EA0301FB68F0
:1004F00000F1100243F82210FB7A9B08DBB2184689
:10050000FB7A9B08DBB21A46FB68043253F82220C0
:100510007B681B781946FB7A03F00303DB0001FAC2
:1005200003F342EA0301FB68021D43F8221014376B
:10053000BD465DF8047B7047008E0248008F02487C
:1005400080B400AF034BD3F8C4301846BD465DF805
:10055000047B70470040005080B584B000AF7860E5
:10056000FFF7E4FE0B4B1B680B4AA2FB03239A0C1C
:100570007B6802FB03F37B600023FB6003E000BFAA
:10058000FB680133FB60FA687B689A42F7D3103747
:10059000BD4680BDC0FF032083DE1B43B0B584B0E1
:1005A00002AF7860002000F08BF800F039FA7B6829
:1005B000DB79002B0AD000F071FA00BF00F05CFA82
:1005C000034683F00103DBB2002BF7D17B685B7A33
:1005D000184600F0EFF800BFFFF7B2FF0346002B0C
:1005E000FAD17B681B7A184600F0F4F97B681B7C13
:1005F000184600F0FDF87B685B7C184600F020F997
:100600007B689B7C184600F007F97B68DB7C18460A
:1006100000F02AF97B689B79002B0AD000F072FA6F
:1006200000BF00F097FA034683F00103DBB2002B12
:10063000F7D17B68DB78002B02D100F0AFFA14E031
:1006400000F09CFA7B6899887B68DA787B685B7835
:100650001D467B681B781C467B689B780093084688
:1006600011462A46234600F0A9FA7B68DB68B3F5F9
:10067000803F03D14FF4803000F022F8FFF756FEA0
:100680000837BD46B0BD00BF80B485B000AF78600C
:100690007B681B0FFB607B6823F07043BB60FA68CC
:1006A00013465B0013449B001A46044B1344BA687C
:1006B0001A601437BD465DF8047B7047144400503F
:1006C00080B483B000AF78600649064BDB6823F442
:1006D00080327B681343CB600C37BD465DF8047BEA
:1006E000704700BF0046005080B483B000AF786010
:1006F0000649064B9B6923F480327B6813438B6168
:100700000C37BD465DF8047B704700BF00460050C3
:1007100080B483B000AF78600649064B5B6A23F46F
:1007200040327B6813434B620C37BD465DF8047B57
:10073000704700BF0046005080B483B000AF03464E
:10074000FB80FB88002B08D10A4A0A4BDB6823F4A4
:10075000807323F00103D36007E0064A054BDB6892
:1007600043F4807343F00103D3600C37BD465DF85A
:10077000047B70471047005080B483B000AF03463D
:10078000FB7100BF094BD3F8C43003F00803002B02
:10079000F8D10749064BDB6823F04002FB7913438D
:1007A000CB600C37BD465DF8047B704700400050BD
:1007B0000043005080B483B000AF0346FB7100BF1C
:1007C000094BD3F8C43003F00803002BF8D10749D4
:1007D000064BDB6823F08002FB791343CB600C37B8
:1007E000BD465DF8047B7047004000500043005058
:1007F00080B483B000AF78600649064BDB6823F015
:10080000FF027B68013B1343CB600C37BD465DF8AC
:10081000047B70470046005080B483B000AF78601E
:100820000649064B1B6A23F001027B68013B134318
:100830000B620C37BD465DF8047B704700460050E4
:1008400080B483B000AF78600649064B1B6923F083
:1008500001027B68013B13430B610C37BD465DF819
:10086000047B70470046005080B483B000AF7860CE
:100870000649064B5B6923F001027B68013B134389
:100880004B610C37BD465DF8047B70470046005055
:1008900080B483B000AF78600649064B9B6923F0B3
:1008A00007027B68013B13438B610C37BD465DF843
:1008B000047B70470046005080B483B000AF78607E
:1008C0000649064BDB6923F03F027B68013B13437B
:1008D000CB610C37BD465DF8047B70470046005085
:1008E00080B483B000AF78600649064B5B6A23F0A2
:1008F000FF027B68013B13434B620C37BD465DF83A
:10090000047B70470046005080B483B000AF0346BC
:10091000FB71044AFB7953600C37BD465DF8047BDC
:10092000704700BF0046005080B485B000AF7860CB
:100930007B681B0FFB607B6823F07043BB60FA6829
:1009400013465B0013449B001A46044B1344BA68D9
:100950001A601437BD465DF8047B70474846005066
:1009600080B483B000AF78603960194A184B5B6976
:1009700043F001035361164A154B5B6943F01003C2
:10098000536113493B68013B1A027B68013B1B061C
:1009900013434B610E4A0E4B5B6943F040035361B6
:1009A0000B4A0B4B5B6923F010035361084A084B59
:1009B0005B6943F48023536100BF054B1B6903F05F
:1009C0000403002BF9D00C37BD465DF8047B70475B
:1009D0001047005080B582B000AF0346FB710F4A4C
:1009E0000E4B5B6843F480135360FB79012B0ED1EF
:1009F0000A4A0A4B5B6823F4801353606420FFF7B4
:100A0000ABFD064A054B5B6843F40023536064204A
:100A1000FFF7A2FD0837BD4680BD00BF104700505C
:100A200080B400AF124B1B6803F00103002B09D107
:100A30000F4B01225A6000BF0D4B1B6803F00103EE
:100A4000002BF9D00B4B1B6803F40073002B0AD06A
:100A5000084B4FF400729A6000BF064B1B6803F40A
:100A60000073002BF9D1BD465DF8047B704700BFD1
:100A7000004200500044005080B400AF064B1B6899
:100A800003F00803002B0CBF01230023DBB2184640
:100A9000BD465DF8047B70470043005080B500AF51
:100AA00000BF164BD3F8C43003F08003002BF8D1FD
:100AB000134A134BDB6923F03003D36100BF0F4BA4
:100AC000D3F8C43003F00803002BF8D10C4A0C4BC8
:100AD000DB6843F00803D36000BF084BD3F8C43091
:100AE00003F00403002BF8D1054B08229A6000BFE5
:100AF000FFF726FD0346002BFAD180BD00400050D1
:100B000000430050B0B500AF0F4A0F4B5B6823F4B1
:100B1000803353600D4D0D4B5B6823F4702424F03B
:100B2000300401F013F90246094BA3FB02231B0D0D
:100B3000013B1B0423436B60034A034B5B6823F4B4
:100B400000335360B0BD00BF104700500047005055
:100B50006BCA5F6B80B400AF074B1B6803F4607314
:100B6000B3F5607F0CBF01230023DBB21846BD46FE
:100B70005DF8047B704700BF1047005080B400AFA1
:100B8000054A054B5B6823F4803323F0020353606E
:100B9000BD465DF8047B70471047005080B400AF3D
:100BA000054A054B5B6843F4803343F0020353600E
:100BB000BD465DF8047B70471047005080B586B095
:100BC00000AFBA607B600346FB810B467B73FB89F9
:100BD0001846FFF7B1FD7B7B012B40F08480FB8939
:100BE000002B09D101F0B2F802464B4BA3FB0223C4
:100BF0009B0C9B057B6102E04FF0C0637B617B69CE
:100C00007A6802FB03F2BB68B2FBF3F37B617B699A
:100C1000424AA2FB03231B099B0D3B61404A404B08
:100C20005B6843F0010353603D4A3D4B5B6843F012
:100C3000100353603A493A4B9A683A4B13407A682A
:100C4000013A12021A433B69013B1B041A43BB6879
:100C5000013B1B0613438B60314A314B5B6843F009
:100C6000400353602E4A2E4B5B6823F01003536001
:100C70002B4A2B4B5B6843F48023536000BF284B07
:100C80001B6803F00403002BF9D0254A244B5B6852
:100C900023F00103536000BF214B1B6803F00103E5
:100CA000002BF9D17B69204AA2FB03235B099B0D32
:100CB0003B613A6A3B699A4202D2386900F038F8DF
:100CC0007B695B08194AA2FB03235B099B0D3B610F
:100CD0003A6A3B699A4202D2386900F029F8386AC8
:100CE00000F026F815E00E490D4B9B6823F07F02BB
:100CF0003B6A013B13438B60094A094B5B6843F035
:100D00000103536000BF064B1B6803F00103002B77
:100D1000F9D01837BD4680BD83DE1B43ABAAAAAA13
:100D200010470050FF8080F089888888B7600BB634
:100D300080B582B000AF78600749074B9B6823F409
:100D4000FE027B68013B1B0413438B603220FFF7DC
:100D500003FC0837BD4680BD1047005080B483B007
:100D600000AF78607B68DB6843F480727B68DA6090
:100D70000C37BD465DF8047B704700BF80B483B07C
:100D800000AF78607B6801221A610C37BD465DF8C0
:100D9000047B704780B582B000AF78607B68094AF9
:100DA000934203D18020FFF76FFC07E07B68064A7F
:100DB000934203D14FF48070FFF766FC0837BD46BD
:100DC00080BD00BF000002400040024080B582B0FC
:100DD00000AF78607B68094A934203D18020FFF717
:100DE000A3FD07E07B68064A934203D14FF480706D
:100DF000FFF79AFD0837BD4680BD00BF00000240E6
:100E00000040024080B582B000AF78601020FFF74C
:100E10007BFD7868FFF7DAFF7868FFF7BBFF0837DC
:100E2000BD4680BD80B584B000AF78600B46FB70D6
:100E30007868FFF7E7FF7868FFF790FF7B681B682B
:100E4000FB60FB6823F44043FB60FB789B03FA687C
:100E50001343FB607B68FA681A601037BD4680BD9B
:100E600080B582B000AF786039607868FFF786FFA0
:100E70003B681A687B685A613B685B7BC3F300136D
:100E8000DBB21A057B685A603B681B7BC3F3030324
:100E9000DBB21A467B685A623B681B7BC3F30313C1
:100EA000DBB21A467B68DA623B685B7BC3F3030301
:100EB000DBB21A467B681A623B685A687B689A61A3
:100EC0003B689B6883F014027B689A640837BD46D0
:100ED00080BD00BF80B485B000AF786039607B68AA
:100EE0001B68FB603B681B0CDB43FA681340FB602C
:100EF0003B689BB2FA681343FB607B68FA681A6030
:100F00001437BD465DF8047B704700BF80B485B0E0
:100F100000AF78600B46FB701346BB707B685B6864
:100F2000BB60BB6823F00303BB60FB78BA68134364
:100F3000BB607B68BA685A607B685B69FB60BB78A2
:100F4000012B04D1FB6843F48063FB6003E0FB6882
:100F500023F48063FB607B68FA685A611437BD46EE
:100F60005DF8047B704700BF80B485B000AF786047
:100F70000B46FB701346BB707B685B68FB60FB68CD
:100F800023F00C03FB60FB789B00FA681343FB60C3
:100F90007B68FA685A607B685B69BB60BB6823F456
:100FA0004073BB60BB781B02BA681343BB607B68AD
:100FB000BA685A611437BD465DF8047B704700BFBC
:100FC00080B485B000AF78600B46FB707B685B68CF
:100FD000FB60FB6823F44053FB60FB781B03FA685B
:100FE0001343FB607B68FA685A601437BD465DF8AE
:100FF000047B704780B485B000AF78600B46FB700F
:101000007B685B69FB60FB6823F08003FB60FB7817
:10101000DB01FA681343FB607B68FA685A61143796
:10102000BD465DF8047B704780B485B000AF786042
:10103000084611461A460346FB700B46BB70134622
:101040007B707B685B68BB60BB6823F44023BB603C
:10105000FB789B04BA681343BB607B68BA685A602C
:101060007B685B69FB60BB78012B04D1FB6843F0B4
:101070008073FB6003E0FB6823F08073FB603B7EC2
:10108000002B04D0FB6843F40003FB6003E0FB6823
:1010900023F40003FB60FB6823F0C053FB607B7804
:1010A000DB06FA681343FB607B68FA685A61143701
:1010B000BD465DF8047B704780B485B000AF7860B2
:1010C0000B46FB707B685B68FB60FB6823F4404366
:1010D000FB60FB789B03FA681343FB607B68FA684C
:1010E0005A601437BD465DF8047B704780B485B004
:1010F00000AF78600B46FB707B685B68FB60FB6849
:1011000023F44073FB60FB781B02FA681343FB6017
:101110007B68FA685A601437BD465DF8047B7047F7
:1011200080B485B000AF78600B46FB707B685B686D
:10113000FB60FB6823F44063FB60FB789B02FA686A
:101140001343FB607B68FA685A601437BD465DF84C
:10115000047B704780B485B000AF78607B685B68C3
:10116000FB60FB6823F48033FB60FB6843F480334F
:10117000FB607B68FA685A601437BD465DF8047BF3
:10118000704700BF80B485B000AF78600B46FB703D
:101190001346BB707B685B68BB60BB6823F400339D
:1011A000BB60BB6843F40033BB607B68BA685A60BD
:1011B0007B685B69FB60BB78002B04D0FB6843F461
:1011C0000013FB6003E0FB6823F40013FB60FB7873
:1011D000012B04D1FB6843F48003FB6003E0FB6850
:1011E00023F48003FB607B68FA685A611437BD46BC
:1011F0005DF8047B704700BF80B487B000AFF86033
:10120000B9607A60FB681B687B617B6923F44023CB
:101210007B61BB685B789B047A6913437B617B6964
:1012200023F440137B617B685B781B057A69134369
:101230007B617B6923F400037B61BB689B78DB05E2
:101240007A6913437B617B6923F080737B617B68E0
:101250009B781B067A6913437B617B6923F0C0533B
:101260007B61BB68DB78DB067A6913437B617B6952
:1012700023F0C0437B617B68DB785B077A691343AB
:101280007B617B6923F0F0037B61BB681B781B01EA
:101290007A6913437B617B6923F470637B617B68AC
:1012A0001B781B027A6913437B61FB687A691A60B9
:1012B0001C37BD465DF8047B704700BF80B489B021
:1012C00000AFF8600B467A60FB72FB7A013BFB775C
:1012D000FB681B68BB61FB7F5B00DBB21033FB75F7
:1012E000FB7D032202FA03F3DB43BA691340BB61BF
:1012F0007B685B781A46FB7D02FA03F3BA691343F5
:10130000BB61FB7F1633FB75FB7D012202FA03F301
:10131000DB43BA691340BB617B689B781A46FB7D4F
:1013200002FA03F3BA691343BB61FB7F5B00DBB2D4
:101330001933FB75FB7D032202FA03F3DB43BA6921
:101340001340BB617B68DB781A46FB7D02FA03F32E
:10135000BA691343BB61FB7F9B00FB75FB7D0F22CA
:1013600002FA03F3DB43BA691340BB617B681B7865
:101370001A46FB7D02FA03F3BA691343BB61FB68AB
:10138000BA691A602437BD465DF8047B704700BF18
:1013900080B483B000AF78600B467B807A887B682E
:1013A0005A630C37BD465DF8047B704780B483B048
:1013B00000AF78600B46FB7013463B80FB78002B38
:1013C00003D13A887B68DA6302E03A887B685A6422
:1013D0000C37BD465DF8047B704700BF80B487B012
:1013E00000AF78600B46FB701346BB707B68D3F888
:1013F000A830FB60FB78092B31D801A252F823F00A
:1014000029140008291400083314000833140008B4
:101410003D1400083D1400085F1400085F14000824
:10142000471400085314000803237B6100233B6129
:101430001BE00C237B6102233B6116E030237B61C0
:1014400004233B6111E04FF440737B6108233B614F
:101450000BE04FF440637B610A233B6105E04FF4EE
:1014600040537B610C233B6100BF7B69DB43FA681F
:101470001340FB60BA783B6902FA03F3FA6813433E
:10148000FB607B68FA68C3F8A8201C37BD465DF88E
:10149000047B704780B483B000AF786039603B68EC
:1014A0005A687B681A653B689A687B685A653B682E
:1014B0001A687B68DA640C37BD465DF8047B7047B8
:1014C00080B483B000AF78600B46FB701346BB70EE
:1014D0007B685A6FFB785B00194603238B40DB4324
:1014E0001A407B685A677B685A6FBB78F978490065
:1014F0008B401A437B685A670C37BD465DF8047B06
:10150000704700BF80B400AFBD465DF8047B7047F4
:1015100080B483B000AF78600B46FB707B68DA68FC
:10152000FB78012101FA03F31A437B68DA600C3778
:10153000BD465DF8047B704780B483B000AF78602F
:1015400039607B685A693B685B041A437B685A615F
:101550000C37BD465DF8047B704700BF80B483B094
:1015600000AF78607B680122DA600C37BD465DF819
:10157000047B704780B483B000AF78607B681B6BDE
:101580009BB218460C37BD465DF8047B704700BF20
:1015900080B483B000AF786039607B683A681A61C4
:1015A0000C37BD465DF8047B704700BF80B483B044
:1015B00000AF78600B46FB707B68D3F8A420FB7803
:1015C000012101FA03F31A437B68C3F8A4200C3706
:1015D000BD465DF8047B704780B483B000AF78608F
:1015E0000B46FB707B68D3F8B43023F00C02FB7819
:1015F0005B0003F006031A437B68C3F8B4200C3782
:10160000BD465DF8047B704780B586B000AF78605A
:101610000123FB750123BB757B681B7F002B40F00A
:10162000A4807B681B68D3F88C30184600F03EFB22
:101630000346BB75BB7D002B40F093807B689A68A6
:101640007B681B689B6C10461946FFF709FC7B689A
:101650009A687B681B685B8810461946FFF798FEFE
:101660007B689A687B681B689B88104600211A4635
:10167000FFF79CFE7B689A687B681B68DB881046D6
:1016800001211A46FFF792FE7B681B689B6CDB7892
:1016900003F00203DBB2002B08D17B681B689B6C54
:1016A000DB7803F00403DBB2002B08D07B685A68B8
:1016B0007B681B68DB6B10461946FFF70BFC7B68E9
:1016C0009A687B681B6893F8443010461946FFF708
:1016D00083FF7B685A687B681B6910461946FFF7D1
:1016E00057FF7B685A687B685B6910461946FFF7AD
:1016F0004FFF7B689A687B681B681B6C1046194615
:10170000FFF7C8FE786800F059F9786800F034F8FF
:10171000786800F0F5F87B681B68D3F88C301B689C
:101720003B617B681B689B6C1B7BC3F30303DBB2D1
:10173000FB60FB683A6922FA03F33B617B683A6914
:101740001A627B6801221A770023FB757B681B688D
:101750001B78002B0BD0786800F020FA0346FB754D
:1017600005E07B6800221A7701E00223FB75FB7D10
:1017700018461837BD4680BD80B582B000AF78608E
:101780007B689A687B681B685B7C104600211A4660
:10179000FFF724FE7B689A687B681B689B7C104679
:1017A00002211A46FFF71AFE7B689A687B681B685D
:1017B000DB7C104603211A46FFF710FE7B689A680F
:1017C0007B681B681B7D104604211A46FFF706FE46
:1017D0007B689A687B681B685B7D104605211A460A
:1017E000FFF7FCFD7B689A687B681B689B7D104651
:1017F00001211A46FFF7F2FD7B689A687B681B6837
:10180000DB7D104608211A46FFF7E8FD7B689A68E1
:101810007B681B681B7E104609211A46FFF7DEFD18
:101820007B689A687B681B685B7E10460A211A46B3
:10183000FFF7D4FD7B681B681B7A002B05D07B6803
:101840009B6818460021FFF7B1FE7B681B685B7A36
:10185000002B05D07B689B6818460221FFF7A6FE87
:101860007B681B689B7A002B05D07B689B681846B9
:101870000321FFF79BFE7B681B68DB7A002B05D0FA
:101880007B689B6818460421FFF790FE7B681B6805
:101890001B7B002B05D07B689B6818460521FFF752
:1018A00085FE7B681B685B7B002B05D07B689B6893
:1018B00018460121FFF77AFE7B681B689B7B002B93
:1018C00005D07B689B6818460821FFF76FFE7B6890
:1018D0001B68DB7B002B05D07B689B6818460921C1
:1018E000FFF764FE7B681B681B7C002B05D07B68C0
:1018F0009B6818460A21FFF759FE0837BD4680BD90
:1019000080B582B000AF78607B681B6893F84C307C
:10191000002B0ED07B681B68196D7B681B6893F8E1
:1019200054207B681B689B6D084611461A46FEF7DB
:1019300067FD7B681B6893F85C30002B0ED07B68DA
:101940001B68196E7B681B6893F864207B681B68B2
:101950009B6E084611461A46FEF752FD7B681B68CF
:1019600093F86C30002B0ED07B681B68196F7B6876
:101970001B6893F874207B681B689B6F08461146B0
:101980001A46FEF73DFD7B681B6893F87C30002B00
:1019900010D07B681B68D3F880107B681B6893F8B5
:1019A00084207B681B68D3F88830084611461A46A5
:1019B000FEF726FD0837BD4680BD00BF80B584B068
:1019C00002AF78607B689A687B681B68DB691046A9
:1019D00001211A46FFF772FC7B689A687B681B68D6
:1019E0001B6A104602211A46FFF768FC7B689A685A
:1019F0007B681B685B6A104603211A46FFF75EFC92
:101A00007B681B6893F82830002B0ED07B689968A0
:101A10007B681B6893F828207B681B6893F8293043
:101A2000084611461A46FFF771FA7B681B6893F85F
:101A30002A30002B0ED07B6899687B681B6893F86E
:101A40002A207B681B6893F82B30084611461A46FB
:101A5000FFF78AFA7B681B6893F82C30002B09D0BB
:101A60007B689A687B681B6893F82C30104619468F
:101A7000FFF756FB7B681B6893F82D30002B09D0CD
:101A80007B689A687B681B6893F82D30104619466E
:101A9000FFF72CFB7B681B6893F82E30002B09D0D6
:101AA0007B689A687B681B6893F82E30104619464D
:101AB000FFF702FB7B681B6893F82F30002B13D0D5
:101AC0007B689A687B681B6893F82F30104619462C
:101AD000FFF776FA7B689A687B681B6893F830306A
:101AE00010461946FFF786FA7B681B6893F8313079
:101AF000002B11D07B6898687B681B6893F83110C5
:101B00007B681B6893F832207B681B6893F833303E
:101B100000930323FFF788FA7B681B6893F837303C
:101B2000032B1AD17B6899687B681B6893F839206E
:101B30007B681B6893F83830084611461A46FFF751
:101B400021FB7B681B6893F83630002B05D07B683F
:101B50009B6818460F21FFF7EFFC7B681B6893F822
:101B60003430002B05D17B681B6893F83530002B8F
:101B700011D07B6899687B681B681A6A7B681B6850
:101B80005B6A084611461A46FFF736FB7B689B687E
:101B90001846FFF7DFFA0837BD4680BD80B584B030
:101BA00000AF78600123FB737B681B7F012B03D0A0
:101BB0007B681B7F032B17D17B685A687B685B7B34
:101BC00010461946FFF7A4FC7B681B6893F8283081
:101BD000002B04D17B689B681846FFF7BFFC7B682D
:101BE00002221A770023FB73FB7B18461037BD4691
:101BF00080BD00BF80B588B000AFF8600B467A604A
:101C0000FB720123FB77FB681B7F002B36D07B68C0
:101C100042F21072934231D8FB689B681846FFF776
:101C2000A9FC03460133BB617B68C3F51C53103329
:101C3000BA6902FB03F3144AA2FB03235B0B7B612B
:101C4000FB6899687B699BB2FA7A084611461A4686
:101C5000FFF7ACFBFB685A68FB681B691046194626
:101C6000FFF796FCFB7A002B03D1FB687A685A6277
:101C700002E0FB687A689A620023FB77FB7F1846D4
:101C80002037BD4680BD00BF5917B7D180B483B09F
:101C900000AF78607B68DB6843F480727B68DA6051
:101CA0000C37BD465DF8047B704700BF80B582B03D
:101CB00000AF78607B685B7B83F00103DBB2002BB5
:101CC0000FD07B689A687B681B7B10461946FFF72C
:101CD000A9F87B689B681846FFF7D8FF7B6801224C
:101CE0005A73002318460837BD4680BD80B582B0C0
:101CF00000AF78607B6819687B681A7C7B68043366
:101D0000084611461A46FEF77BFB7B6819687B681C
:101D10001A7C7B685B7C084611461A46FFF7D0FBAD
:101D2000002318460837BD4680BD00BF80B485B08B
:101D300000AF78600023FB737B6801221A70FB7B85
:101D400018461437BD465DF8047B704780B400AF79
:101D5000024B1846BD465DF8047B7047001BB70078
:101D6000B0B586B000AF124B3C1D1D460FCD0FC461
:101D70002B6823603B1D1846FEF710FC0020FEF781
:101D8000FBFC0020FEF7B0FC0420FEF781FD0120E3
:101D90002021FEF7E5FD0020FEF7BAFC0120FEF74A
:101DA0009FFD0120FEF788FD1837BD46B0BD00BF7E
:101DB0006820000880B582B000AF0023FB71114895
:101DC000FFF7B4FF0346FB71FB79002B04D10E48EB
:101DD000FFF71AFC0346FB71FB79002B04D10B487B
:101DE000FFF784FF0346FB71FB79002B04D1084801
:101DF000FFF77CFF0346FB71FB7918460837BD46A9
:101E000080BD00BF4888FE1F0088FE1F40200008DC
:101E10005420000880B483B000AF78600B46FB709C
:101E2000FB7801229A407B685A600C37BD465DF80A
:101E3000047B704780B483B000AF78600B46FB70C2
:101E4000FB784FF480329A407B685A600C37BD466D
:101E50005DF8047B704700BF80B483B000AF78604A
:101E60000B46FB707B685A6AFB7822FA03F303F097
:101E7000010318460C37BD465DF8047B704700BF70
:101E800080B582B000AFFFF795FF0346FB71FB7989
:101E9000002B00D0FEE71D4BD3ED007A9FED1C7A9E
:101EA000F4EEC77AF1EE10FA03DD184B194A1A6006
:101EB0000BE0164BD3ED007AF5EEC07AF1EE10FA96
:101EC00003D5124B4FF000021A60104BD3ED007A8D
:101ED000FCEEE77A17EE902A642303FB02F30E4828
:101EE00000211A46FFF786FE0C480D21FFF7B4FFCC
:101EF0000346002B04D00A480721FFF78BFF03E0BD
:101F000007480721FFF796FFC5E700BF4488FE1F7B
:101F10000000C8420000C8420088FE1F008F02482F
:101F20000080024870B50E4B0E4CE41AA410002538
:101F30001E46A54204D056F8253098470135F8E7EB
:101F4000FFF7E0FA084C094BE41AA41000251E46DE
:101F5000A54204D056F8253098470135F8E770BD02
:101F60004888FE1F4888FE1F4888FE1F4888FE1FBD
:101F7000000000000000000014000000010000004C
:101F80000000010000000100000001030D0000003E
:101F90002424000000000000980000000000010060
:101FA0000400000098000000000001000400000090
:101FB00001001F1C100E100E0000000000000000A9
:101FC000000000000000000000000000801F00086A
:101FD000841F0008881F00080000000000000000A7
:101FE00000000000000001030100000000000004E8
:101FF0008C1F000801000000701F00080100000095
:102000000080024805000000981F00080100000041
:102010000080024802000000A41F00080000000029
:1020200000000000000000000000000000000000B0
:102030000000000000000000000000003488FE1FC7
:102040000080024880000000010000000000000045
:1020500007000000008F02480000000000000000A0
:10206000000000000D00000030020101000001002E
:0C2070000000000000000100020101015E
:10207C00B01F0008000002400001024000000000F8
:10208C00010000000200000004000000000000003D
:10209C0000000000881300008813000000000000FE
:1020AC000000000000449508000100000000024000
:0820BC00000000000000484292
:0400000508000201EC
:00000001FF
