:020000040C00EE
:100000000088FE1F010200089902000899020008FA
:1000100099020008990200089902000800000000F7
:10002000000000000000000000000000990200082D
:1000300099020008000000009902000899020008D7
:100040009902000899020008990200089902000824
:100050009902000899020008990200089902000814
:1000600099020008000000000000000000000000ED
:100070009902000800000000990200089902000897
:10008000990200089902000899020008F92A00085C
:1000900099020008990200089902000899020008D4
:1000A00099020008990200089902000899020008C4
:1000B00099020008990200089902000899020008B4
:1000C00099020008990200089902000899020008A4
:1000D0009902000899020008990200089902000894
:1000E0009902000899020008990200089902000884
:1000F0009902000899020008990200089902000874
:100100009902000899020008990200089902000863
:100110009902000899020008990200089902000853
:100120009902000899020008990200089902000843
:100130009902000899020008990200089902000833
:100140009902000899020008990200089902000823
:100150009902000899020008990200089902000813
:10016000000000000000000000000000000000008F
:1001700099020008990200089902000899020008F3
:1001800099020008990200089902000899020008E3
:1001900099020008990200089902000899020008D3
:1001A00099020008990200089902000899020008C3
:1001B00099020008990200089902000899020008B3
:1001C00099020008990200089902000899020008A3
:1001D0009902000899020008990200080000000036
:1001E0009902000899020008990200089902000883
:1001F00099020008000000009902000800000000B9
:10020000DFF874D01D4880471D4C1E4DAC4209DA02
:1002100021686268A368043BA2BFC858D050FAE7BF
:100220000C34F3E7184B194CA34208DA19685A68E2
:100230000020043AA4BF8850FBE70833F4E71448D1
:100240008047144880470000A82D000C0088FE1F3E
:1002500060000000A82D000C0088FE1F00000000B8
:100260006088FE1F10000000000000200000000059
:1002700000000020000000000088FE1F9D02000812
:1002800048020008600200086002000878020008C6
:10029000352B0008212A0008FEE7000098B500AFC2
:1002A000054A4FF0005314460FCB84E80F0002F0CC
:1002B00069FA02F0D1FA98BDC4FF032080B584B07A
:1002C00000AF2F4BDB6803F48033002B3ED02D4B67
:1002D000DB6803F00103002B02D02B4BFB6002E034
:1002E00002F0B0FAF860274B1B6803F00403002B00
:1002F00020D0244B9B6803F070631B0E0133BB605E
:10030000204B9B6803F4FE431B0A01337B601D4BAB
:100310009B6803F4FE031B0C01333B60BB683A6827
:1003200002FB03F3FA68B2FBF3F37A6802FB03F310
:10033000FB600DE0134B9B6803F07F0301333B60D0
:10034000FA683B68B2FBF3F3FB6001E00E4BFB6025
:100350000B4BDB68DBB20133FA68B2FBF3F3FB60F3
:10036000074B1B6903F001030133FA68B2FBF3F397
:10037000FB60064AFB6813601037BD4680BD00BFB6
:10038000004600501047005000366E01C0FF0320A9
:1003900080B485B000AFF8600B467A60FB72FB7AE0
:1003A0009B08DBB21846FB7A9B08DBB21A46FB6857
:1003B000043253F82220FB7A03F00303DB001946D2
:1003C000F8238B40DB4302EA0301FB68021D43F87C
:1003D0002210FB685A6FFB7A5B00194603238B409F
:1003E000DB431A40FB685A67FB68374A934203D0E5
:1003F000FB68364A93420AD1FB681A6EFB7A0121E8
:1004000001FA03F3DB431A40FB681A663CE07B68A1
:100410005A68FB7A9A40FB685A60FB7ADB08DBB2C9
:100420001846FB7ADB08DBB21A46FB68103253F839
:100430002220FB7A03F007039B00194607238B4019
:10044000DB4302EA0301FB6800F1100243F82210CB
:10045000FB7ADB08DBB21846FB7ADB08DBB21A4614
:10046000FB68103253F822207B681B7A1946FB7A0E
:1004700003F007039B0001FA03F342EA0301FB6860
:1004800000F1100243F82210FB7A9B08DBB21846F9
:10049000FB7A9B08DBB21A46FB68043253F8222031
:1004A0007B681B781946FB7A03F00303DB0001FA33
:1004B00003F342EA0301FB68021D43F822101437DC
:1004C000BD465DF8047B7047008E0248008F0248ED
:1004D00080B400AF034BD3F8C4301846BD465DF876
:1004E000047B70470040005080B584B000AF786056
:1004F000FFF7E4FE0B4B1B680B4AA2FB03239A0C8D
:100500007B6802FB03F37B600023FB6003E000BF1A
:10051000FB680133FB60FA687B689A42F7D31037B7
:10052000BD4680BDC0FF032083DE1B43B0B584B051
:1005300002AF7860002000F08BF800F039FA7B6899
:10054000DB79002B0AD000F071FA00BF00F05CFAF2
:10055000034683F00103DBB2002BF7D17B685B7AA3
:10056000184600F0EFF800BFFFF7B2FF0346002B7C
:10057000FAD17B681B7A184600F0F4F97B681B7C83
:10058000184600F0FDF87B685B7C184600F020F907
:100590007B689B7C184600F007F97B68DB7C18467B
:1005A00000F02AF97B689B79002B0AD000F072FAE0
:1005B00000BF00F097FA034683F00103DBB2002B83
:1005C000F7D17B68DB78002B02D100F0AFFA14E0A2
:1005D00000F09CFA7B6899887B68DA787B685B78A6
:1005E0001D467B681B781C467B689B7800930846F9
:1005F00011462A46234600F0A9FA7B68DB68B3F56A
:10060000803F03D14FF4803000F022F8FFF756FE10
:100610000837BD46B0BD00BF80B485B000AF78607C
:100620007B681B0FFB607B6823F07043BB60FA683C
:1006300013465B0013449B001A46044B1344BA68EC
:100640001A601437BD465DF8047B704714440050AF
:1006500080B483B000AF78600649064BDB6823F4B2
:1006600080327B681343CB600C37BD465DF8047B5A
:10067000704700BF0046005080B483B000AF786080
:100680000649064B9B6923F480327B6813438B61D8
:100690000C37BD465DF8047B704700BF0046005034
:1006A00080B483B000AF78600649064B5B6A23F4E0
:1006B00040327B6813434B620C37BD465DF8047BC8
:1006C000704700BF0046005080B483B000AF0346BF
:1006D000FB80FB88002B08D10A4A0A4BDB6823F415
:1006E000807323F00103D36007E0064A054BDB6803
:1006F00043F4807343F00103D3600C37BD465DF8CB
:10070000047B70471047005080B483B000AF0346AD
:10071000FB7100BF094BD3F8C43003F00803002B72
:10072000F8D10749064BDB6823F04002FB791343FD
:10073000CB600C37BD465DF8047B7047004000502D
:100740000043005080B483B000AF0346FB7100BF8C
:10075000094BD3F8C43003F00803002BF8D1074944
:10076000064BDB6823F08002FB791343CB600C3728
:10077000BD465DF8047B70470040005000430050C8
:1007800080B483B000AF78600649064BDB6823F085
:10079000FF027B68013B1343CB600C37BD465DF81D
:1007A000047B70470046005080B483B000AF78608F
:1007B0000649064B1B6A23F001027B68013B134389
:1007C0000B620C37BD465DF8047B70470046005055
:1007D00080B483B000AF78600649064B1B6923F0F4
:1007E00001027B68013B13430B610C37BD465DF88A
:1007F000047B70470046005080B483B000AF78603F
:100800000649064B5B6923F001027B68013B1343F9
:100810004B610C37BD465DF8047B704700460050C5
:1008200080B483B000AF78600649064B9B6923F023
:1008300007027B68013B13438B610C37BD465DF8B3
:10084000047B70470046005080B483B000AF7860EE
:100850000649064BDB6923F03F027B68013B1343EB
:10086000CB610C37BD465DF8047B704700460050F5
:1008700080B483B000AF78600649064B5B6A23F012
:10088000FF027B68013B13434B620C37BD465DF8AA
:10089000047B70470046005080B483B000AF03462D
:1008A000FB71044AFB7953600C37BD465DF8047B4D
:1008B000704700BF0046005080B485B000AF78603C
:1008C0007B681B0FFB607B6823F07043BB60FA689A
:1008D00013465B0013449B001A46044B1344BA684A
:1008E0001A601437BD465DF8047B704748460050D7
:1008F00080B483B000AF78603960194A184B5B69E7
:1009000043F001035361164A154B5B6943F0100332
:10091000536113493B68013B1A027B68013B1B068C
:1009200013434B610E4A0E4B5B6943F04003536126
:100930000B4A0B4B5B6923F010035361084A084BC9
:100940005B6943F48023536100BF054B1B6903F0CF
:100950000403002BF9D00C37BD465DF8047B7047CB
:100960001047005080B582B000AF0346FB710F4ABC
:100970000E4B5B6843F480135360FB79012B0ED15F
:100980000A4A0A4B5B6823F4801353606420FFF724
:10099000ABFD064A054B5B6843F4002353606420BB
:1009A000FFF7A2FD0837BD4680BD00BF10470050CD
:1009B00080B400AF124B1B6803F00103002B09D178
:1009C0000F4B01225A6000BF0D4B1B6803F001035F
:1009D000002BF9D00B4B1B6803F40073002B0AD0DB
:1009E000084B4FF400729A6000BF064B1B6803F47B
:1009F0000073002BF9D1BD465DF8047B704700BF42
:100A0000004200500044005080B400AF064B1B6809
:100A100003F00803002B0CBF01230023DBB21846B0
:100A2000BD465DF8047B70470043005080B500AFC1
:100A300000BF164BD3F8C43003F08003002BF8D16D
:100A4000134A134BDB6923F03003D36100BF0F4B14
:100A5000D3F8C43003F00803002BF8D10C4A0C4B38
:100A6000DB6843F00803D36000BF084BD3F8C43001
:100A700003F00403002BF8D1054B08229A6000BF55
:100A8000FFF726FD0346002BFAD180BD0040005041
:100A900000430050B0B500AF0F4A0F4B5B6823F422
:100AA000803353600D4D0D4B5B6823F4702424F0AC
:100AB000300401F0C7FE0246094BA3FB02231B0DC5
:100AC000013B1B0423436B60034A034B5B6823F425
:100AD00000335360B0BD00BF1047005000470050C6
:100AE0006BCA5F6B80B400AF074B1B6803F4607385
:100AF000B3F5607F0CBF01230023DBB21846BD466F
:100B00005DF8047B704700BF1047005080B400AF11
:100B1000054A054B5B6823F4803323F002035360DE
:100B2000BD465DF8047B70471047005080B400AFAD
:100B3000054A054B5B6843F4803343F0020353607E
:100B4000BD465DF8047B70471047005080B586B005
:100B500000AFBA607B600346FB810B467B73FB8969
:100B60001846FFF7B1FD7B7B012B40F08480FB89A9
:100B7000002B09D101F066FE02464B4BA3FB02237A
:100B80009B0C9B057B6102E04FF0C0637B617B693E
:100B90007A6802FB03F2BB68B2FBF3F37B617B690B
:100BA000424AA2FB03231B099B0D3B61404A404B79
:100BB0005B6843F0010353603D4A3D4B5B6843F083
:100BC000100353603A493A4B9A683A4B13407A689B
:100BD000013A12021A433B69013B1B041A43BB68EA
:100BE000013B1B0613438B60314A314B5B6843F07A
:100BF000400353602E4A2E4B5B6823F01003536072
:100C00002B4A2B4B5B6843F48023536000BF284B77
:100C10001B6803F00403002BF9D0254A244B5B68C2
:100C200023F00103536000BF214B1B6803F0010355
:100C3000002BF9D17B69204AA2FB03235B099B0DA2
:100C40003B613A6A3B699A4202D2386900F038F84F
:100C50007B695B08194AA2FB03235B099B0D3B617F
:100C60003A6A3B699A4202D2386900F029F8386A38
:100C700000F026F815E00E490D4B9B6823F07F022B
:100C80003B6A013B13438B60094A094B5B6843F0A5
:100C90000103536000BF064B1B6803F00103002BE8
:100CA000F9D01837BD4680BD83DE1B43ABAAAAAA84
:100CB00010470050FF8080F089888888B7600BB6A5
:100CC00080B582B000AF78600749074B9B6823F47A
:100CD000FE027B68013B1B0413438B603220FFF74D
:100CE00003FC0837BD4680BD1047005080B483B078
:100CF00000AF78607B68DB6843F480727B68DA6001
:100D00000C37BD465DF8047B704700BF80B483B0EC
:100D100000AF78607B6801221A610C37BD465DF830
:100D2000047B704780B582B000AF78607B68094A69
:100D3000934203D18020FFF76FFC07E07B68064AEF
:100D4000934203D14FF48070FFF766FC0837BD462D
:100D500080BD00BF000002400040024080B582B06C
:100D600000AF78607B68094A934203D18020FFF787
:100D7000A3FD07E07B68064A934203D14FF48070DD
:100D8000FFF79AFD0837BD4680BD00BF0000024056
:100D90000040024080B582B000AF78601020FFF7BD
:100DA0007BFD7868FFF7DAFF7868FFF7BBFF08374D
:100DB000BD4680BD80B584B000AF78600B46FB7047
:100DC0007868FFF7E7FF7868FFF790FF7B681B689C
:100DD000FB60FB6823F44043FB60FB789B03FA68ED
:100DE0001343FB607B68FA681A601037BD4680BD0C
:100DF00080B582B000AF786039607868FFF786FF11
:100E00003B681A687B685A613B685B7BC3F30013DD
:100E1000DBB21A057B685A603B681B7BC3F3030394
:100E2000DBB21A467B685A623B681B7BC3F3031331
:100E3000DBB21A467B68DA623B685B7BC3F3030371
:100E4000DBB21A467B681A623B685A687B689A6113
:100E50003B689B6883F014027B689A640837BD4640
:100E600080BD00BF80B485B000AF786039607B681A
:100E70001B68FB603B681B0CDB43FA681340FB609C
:100E80003B689BB2FA681343FB607B68FA681A60A0
:100E90001437BD465DF8047B704700BF80B485B051
:100EA00000AF78600B46FB701346BB707B685B68D5
:100EB000BB60BB6823F00303BB60FB78BA681343D5
:100EC000BB607B68BA685A607B685B69FB60BB7813
:100ED000012B04D1FB6843F48063FB6003E0FB68F3
:100EE00023F48063FB607B68FA685A611437BD465F
:100EF0005DF8047B704700BF80B485B000AF7860B8
:100F00000B46FB701346BB707B685B68FB60FB683D
:100F100023F00C03FB60FB789B00FA681343FB6033
:100F20007B68FA685A607B685B69BB60BB6823F4C6
:100F30004073BB60BB781B02BA681343BB607B681D
:100F4000BA685A611437BD465DF8047B704700BF2C
:100F500080B485B000AF78600B46FB707B685B683F
:100F6000FB60FB6823F44053FB60FB781B03FA68CB
:100F70001343FB607B68FA685A601437BD465DF81E
:100F8000047B704780B485B000AF78600B46FB707F
:100F90007B685B69FB60FB6823F08003FB60FB7888
:100FA000DB01FA681343FB607B68FA685A61143707
:100FB000BD465DF8047B704780B485B000AF7860B3
:100FC000084611461A460346FB700B46BB70134693
:100FD0007B707B685B68BB60BB6823F44023BB60AD
:100FE000FB789B04BA681343BB607B68BA685A609D
:100FF0007B685B69FB60BB78012B04D1FB6843F025
:101000008073FB6003E0FB6823F08073FB603B7E32
:10101000002B04D0FB6843F40003FB6003E0FB6893
:1010200023F40003FB60FB6823F0C053FB607B7874
:10103000DB06FA681343FB607B68FA685A61143771
:10104000BD465DF8047B704780B485B000AF786022
:101050000B46FB707B685B68FB60FB6823F44043D6
:10106000FB60FB789B03FA681343FB607B68FA68BC
:101070005A601437BD465DF8047B704780B485B074
:1010800000AF78600B46FB707B685B68FB60FB68B9
:1010900023F44073FB60FB781B02FA681343FB6088
:1010A0007B68FA685A601437BD465DF8047B704768
:1010B00080B485B000AF78600B46FB707B685B68DE
:1010C000FB60FB6823F44063FB60FB789B02FA68DB
:1010D0001343FB607B68FA685A601437BD465DF8BD
:1010E000047B704780B485B000AF78607B685B6834
:1010F000FB60FB6823F48033FB60FB6843F48033C0
:10110000FB607B68FA685A601437BD465DF8047B63
:10111000704700BF80B485B000AF78600B46FB70AD
:101120001346BB707B685B68BB60BB6823F400330D
:10113000BB60BB6843F40033BB607B68BA685A602D
:101140007B685B69FB60BB78002B04D0FB6843F4D1
:101150000013FB6003E0FB6823F40013FB60FB78E3
:10116000012B04D1FB6843F48003FB6003E0FB68C0
:1011700023F48003FB607B68FA685A611437BD462C
:101180005DF8047B704700BF80B487B000AFF860A3
:10119000B9607A60FB681B687B617B6923F440233C
:1011A0007B61BB685B789B047A6913437B617B69D5
:1011B00023F440137B617B685B781B057A691343DA
:1011C0007B617B6923F400037B61BB689B78DB0553
:1011D0007A6913437B617B6923F080737B617B6851
:1011E0009B781B067A6913437B617B6923F0C053AC
:1011F0007B61BB68DB78DB067A6913437B617B69C3
:1012000023F0C0437B617B68DB785B077A6913431B
:101210007B617B6923F0F0037B61BB681B781B015A
:101220007A6913437B617B6923F470637B617B681C
:101230001B781B027A6913437B61FB687A691A6029
:101240001C37BD465DF8047B704700BF80B489B091
:1012500000AFF8600B467A60FB72FB7A013BFB77CC
:10126000FB681B68BB61FB7F5B00DBB21033FB7567
:10127000FB7D032202FA03F3DB43BA691340BB612F
:101280007B685B781A46FB7D02FA03F3BA69134365
:10129000BB61FB7F1633FB75FB7D012202FA03F372
:1012A000DB43BA691340BB617B689B781A46FB7DC0
:1012B00002FA03F3BA691343BB61FB7F5B00DBB245
:1012C0001933FB75FB7D032202FA03F3DB43BA6992
:1012D0001340BB617B68DB781A46FB7D02FA03F39F
:1012E000BA691343BB61FB7F9B00FB75FB7D0F223B
:1012F00002FA03F3DB43BA691340BB617B681B78D6
:101300001A46FB7D02FA03F3BA691343BB61FB681B
:10131000BA691A602437BD465DF8047B704700BF88
:1013200080B483B000AF78600B467B807A887B689E
:101330005A630C37BD465DF8047B704780B483B0B8
:1013400000AF78600B46FB7013463B80FB78002BA8
:1013500003D13A887B68DA6302E03A887B685A6492
:101360000C37BD465DF8047B704700BF80B487B082
:1013700000AF78600B46FB701346BB707B68D3F8F8
:10138000A830FB60FB78092B31D801A252F823F07A
:10139000B9130008B9130008C3130008C3130008E9
:1013A000CD130008CD130008EF130008EF13000859
:1013B000D7130008E313000803237B6100233B617C
:1013C0001BE00C237B6102233B6116E030237B6131
:1013D00004233B6111E04FF440737B6108233B61C0
:1013E0000BE04FF440637B610A233B6105E04FF45F
:1013F00040537B610C233B6100BF7B69DB43FA6890
:101400001340FB60BA783B6902FA03F3FA681343AE
:10141000FB607B68FA68C3F8A8201C37BD465DF8FE
:10142000047B704780B483B000AF786039603B685C
:101430005A687B681A653B689A687B685A653B689E
:101440001A687B68DA640C37BD465DF8047B704728
:1014500080B483B000AF78600B46FB701346BB705E
:101460007B685A6FFB785B00194603238B40DB4394
:101470001A407B685A677B685A6FBB78F9784900D5
:101480008B401A437B685A670C37BD465DF8047B76
:10149000704700BF80B485B000AF786039603B789A
:1014A000C3F30203DBB21A467B88C3F309039BB282
:1014B0001B041343FB607B68FA68C3F8F021FB78D8
:1014C000C3F30013DBB21A07FB78C3F38103DBB26B
:1014D0009B061A43FB78C3F34013DBB25B0713434D
:1014E000FB60FB78C3F38013DBB29B07FA681343FE
:1014F000FB607B68D3F8F021FB68134343F00042A4
:101500007B68C3F8F0211437BD465DF8047B704753
:1015100080B483B000AF78607B68D3F8843043F048
:1015200080627B68C3F884200C37BD465DF8047B7D
:10153000704700BF80B483B000AF78607B68D3F899
:10154000843023F080627B68C3F884200C37BD466A
:101550005DF8047B704700BF80B483B000AF786053
:101560007B68D3F8843043F080727B68C3F88420B2
:101570000C37BD465DF8047B704700BF80B483B074
:1015800000AF78607B68D3F8843023F080727B688A
:10159000C3F884200C37BD465DF8047B704700BF5C
:1015A00080B500AF0120FFF787F90120FFF734F87D
:1015B00080BD00BF80B582B000AF78603960FFF7B2
:1015C000EFFF3B685A697B681A603B685B6843F4CD
:1015D00000427B68C3F880203B689A687B68C3F848
:1015E000A0203B68DA687B68C3F8A4203B681A69CE
:1015F0007B68C3F880223B681A687B68C3F8B82010
:101600000837BD4680BD00BF80B485B000AF7860AC
:101610007B68D3F8803043F000427B68C3F88020B9
:101620000023FB7316E0FB7B0E4A52F82330BB60AD
:10163000BB68D3F8803003F44033002B07D000BFE1
:10164000BB68D3F8803003F08053002BF8D1FB7BCC
:101650000133FB73FB7B032BE5D91437BD465DF8E3
:10166000047B7047802B000880B582B000AF7860A3
:1016700039603B68786859680022002300F028F838
:101680003B68786859680122002300F021F83B6824
:10169000786899680022012300F01AF83B6878689E
:1016A00099680122012300F013F83B681A697B68EE
:1016B000C3F880203B68DA687B68C3F8B8203B68D1
:1016C00078681968FFF7E6FE0837BD4680BD00BFA1
:1016D00080B48DB000AFF860B9603B601346FB7119
:1016E000FB79002B13D10823FB624FF4E0637B628C
:1016F0000023BB621F233B623B7AC3F30403DBB2CC
:10170000FB617B7AC3F30203DBB2FB7613E01823A1
:10171000FB624FF0E0637B621023BB624FF4F8136F
:101720003B62BB7AC3F30403DBB2FB61FB7AC3F316
:101730000203DBB2FB76FB683A68283253F82230AA
:101740007B617B6ADB437A6913407B61FA7EFB6ACB
:1017500002FA03F37A6913437B613B6ADB437A69DC
:1017600013407B61BB6AFA6902FA03F37A69134397
:101770007B61FB683A682832796943F82210343774
:10178000BD465DF8047B704780B485B000AF7860DB
:101790000B46FB707B68D3F88030FB60FB6823F05E
:1017A0000303FB60FB78FA681343FB607B68FA680D
:1017B000C3F880201437BD465DF8047B704700BF36
:1017C00080B586B000AF786039600023FB7509E012
:1017D000FB7D394A52F823301846FFF7ABFEFB7DFC
:1017E0000133FB75FB7D032BF2D900233B613B6882
:1017F0001B7803F00303DBB2002B02D04FF400632D
:101800003B610023FB7521E0FB7D2B4A52F823301E
:10181000D3F88430FB60FB6823F44073FB603B68C3
:101820001B78C3F38103DBB21B02FA681343FB602E
:10183000FA683B691343FB60FB7D1F4A52F8233073
:10184000FA68C3F88420FB7D0133FB75FB7D032B15
:10185000DAD93B685B6843F4000343F400437A68D9
:10186000C2F800323B689B6843F001027B68C3F812
:1018700004223B681B7803F00303DBB2022B07D181
:101880007B68D3F8043243F480327B68C3F80422C7
:101890000023FB7509E0FB7D074A52F82330184608
:1018A000FFF736FEFB7D0133FB75FB7D032BF2D981
:1018B0001837BD4680BD00BF802B000880B584B0BE
:1018C00000AF786039607868FFF758FE7B68D3F81E
:1018D0008430FB60FB6823F00303FB603B681B78EC
:1018E000C3F38103DBB21A46FB681343FB603B681A
:1018F0001B7803F00303DBB2002B03D0FB6843F03B
:101900000803FB607B68FA68C3F884203B685B6867
:1019100043F0802343F400037A68C2F800313B6847
:101920009B6843F001027B68C3F804213B681B7885
:1019300003F00303DBB2022B07D17B68D3F8043139
:1019400043F480327B68C3F804217868FFF704FE13
:101950001037BD4680BD00BF80B485B000AF786051
:101960000B46FB707B68D3F8C031FB60FB6823F04B
:101970000F03FB60FB78FA681343FB607B68FA682F
:10198000C3F8C0211437BD465DF8047B704700BF23
:1019900080B489B000AFF860B9607A607B681B7B67
:1019A000BB61FB68D3F888307B61BB68012202FA17
:1019B00003F3DB437A6913407B61BB68BA6902FABF
:1019C00003F37A6913437B61FB687A69C3F8882063
:1019D0007B685B7B5BB2002B29DB0023FB61BB6870
:1019E000012B0AD10823FB61FB68D3F8B03023F444
:1019F000F852FB68C3F8B0200CE0BB68002B09D19B
:101A00000023FB61FB68D3F8B03023F01F02FB68B2
:101A1000C3F8B020FB68D3F8B0307A68527B51B27B
:101A2000FA6901FA02F21A43FB68C3F8B020FB68B6
:101A3000D3F8C8207B685B681A43FB68C3F8C820EA
:101A4000FB68D3F8D0207B689B681A43FB68C3F817
:101A5000D0207B681968FB68BA68803243F822108E
:101A60002437BD465DF8047B704700BF80B487B063
:101A700000AFF860B9601346FB71BB68072B18D83C
:101A8000FB68D3F8B0317B61BB689B001A460F231B
:101A90009340DB437A6913407B61FB79BA6892001B
:101AA00093407A6913437B61FB687A69C3F8B0217C
:101AB0001EE0FB68D3F8B4317B61BB6803F180435F
:101AC000083B9B001A460F239340DB437A6913407F
:101AD0007B61FA79BB6803F18043083B9B0002FA03
:101AE00003F37A6913437B61FB687A69C3F8B42115
:101AF0001C37BD465DF8047B704700BF80B400AF63
:101B0000BD465DF8047B704780B584B000AF786057
:101B10000023FB737B681B6898470346FB73FB7BC2
:101B200018461037BD4680BD80B483B000AF7860E2
:101B30000B46FB707B68D3F8043123F003027B680B
:101B4000C3F804217B68D3F80421FB781A437B682F
:101B5000C3F804210C37BD465DF8047B704700BF15
:101B600080B483B000AF786039603A687B68C3F8AE
:101B700010210C37BD465DF8047B704780B485B0FA
:101B800000AFF860B9607A607B681968FB68BA6872
:101B9000A03243F822101437BD465DF8047B70472D
:101BA00080B582B000AF2C4800F062F80346FB70AD
:101BB0002A482B49FFF782FE28480121FFF7B4FF8E
:101BC00026480021FFF7C8FE00237B6010E0254A6D
:101BD0007B68DB0013441B791946224A7B6852F864
:101BE00033301E481A46FFF7D3FE7B68013B7B600B
:101BF0007B68002BEBDA00237B6010E01A4A7B68DD
:101C0000DB0013441B791946174A7B6852F83330BE
:101C100012481A46FFF7B2FF7B68013B7B607B6886
:101C2000002BEBDA0D4800210122FFF71FFF0023F4
:101C30007B6008E07B685A1E7A600C4A074852F8BD
:101C40002310FFF78DFF7B68002BF3DAFB78184633
:101C50000837BD4680BD00BF0088FE1F004400401D
:101C6000B82B0008A02B0008AC2B0008B42B0008F0
:101C700080B584B000AF78600023FB737B681B687D
:101C800098470346FB73FB7B18461037BD4680BD63
:101C900080B483B000AF786039607B68D3F880206F
:101CA0003B681033194601238B401A437B68C3F805
:101CB00080200C37BD465DF8047B704780B483B04C
:101CC00000AF78600B46FB707B68D3F8043223F0DA
:101CD00003027B68C3F804227B68D3F80422FB78F4
:101CE0001A437B68C3F804220C37BD465DF8047BB9
:101CF000704700BF80B582B000AF294B1B7D022B1F
:101D000048D14FF040202749FFF754FC00237B6067
:101D10002CE0234A7B689B0013445B681968204AC7
:101D20007B689B0013445B685B6808461946FFF7B5
:101D30009BFC1B4A7B689B0013445B681B6818462E
:101D40000321FFF721FD164A7B689B0013445B6863
:101D50001B7A83F00103DBB2002B04D04FF040204C
:101D60007968FFF795FF7B6801337B607B68032B05
:101D7000CFD94FF04020FFF747FC4FF040200A49F1
:101D8000FFF71EFD4FF040200121FFF797FF044BA6
:101D900000221A75024B1B7D18460837BD4680BDD0
:101DA0000088FE1F202C0008682C000880B483B037
:101DB00000AF78600B46FB707B68DA68FB78012126
:101DC00001FA03F31A437B68DA600C37BD465DF80D
:101DD000047B704780B483B000AF786039607B6863
:101DE0005A693B685B041A437B685A610C37BD46ED
:101DF0005DF8047B704700BF80B483B000AF7860AB
:101E00007B680122DA600C37BD465DF8047B7047C1
:101E100080B483B000AF78607B681B6B9BB21846C0
:101E20000C37BD465DF8047B704700BF80B483B0BB
:101E300000AF786039607B683A681A610C37BD463C
:101E40005DF8047B704700BF80B483B000AF78605A
:101E50000B46FB707B68D3F8A420FB78012101FAC4
:101E600003F31A437B68C3F8A4200C37BD465DF822
:101E7000047B704780B483B000AF78600B46FB7082
:101E80007B68D3F8B43023F00C02FB785B0003F0DE
:101E900006031A437B68C3F8B4200C37BD465DF8CF
:101EA000047B704780B586B000AF78600123FB7576
:101EB0000123BB757B681B7F002B40F0A4807B68EF
:101EC0001B68D3F88C30184600F0F8FB0346BB754E
:101ED000BB7D002B40F093807B689A687B681B6811
:101EE0009B6C10461946FEF783FF7B689A687B68F7
:101EF0001B685B8810461946FFF712FA7B689A68E0
:101F00007B681B689B88104600211A46FFF716FA6B
:101F10007B689A687B681B68DB88104601211A463B
:101F2000FFF70CFA7B681B689B6CDB7803F00203FD
:101F3000DBB2002B08D17B681B689B6CDB7803F05D
:101F40000403DBB2002B08D07B685A687B681B68EF
:101F5000DB6B10461946FEF785FF7B689A687B6845
:101F60001B6893F8443010461946FFF783FF7B68DF
:101F70005A687B681B6910461946FFF757FF7B6854
:101F80005A687B685B6910461946FFF74FFF7B680C
:101F90009A687B681B681B6C10461946FFF742FA6B
:101FA000786800F059F9786800F034F8786800F043
:101FB000F5F87B681B68D3F88C301B683B617B6845
:101FC0001B689B6C1B7BC3F30303DBB2FB60FB68EA
:101FD0003A6922FA03F33B617B683A691A627B68CB
:101FE00001221A770023FB757B681B681B78002B86
:101FF0000BD0786800F020FA0346FB7505E07B689B
:1020000000221A7701E00223FB75FB7D1846183782
:10201000BD4680BD80B582B000AF78607B689A68AD
:102020007B681B685B7C104600211A46FFF79EF90F
:102030007B689A687B681B689B7C104602211A4665
:10204000FFF794F97B689A687B681B68DB7C104615
:1020500003211A46FFF78AF97B689A687B681B6838
:102060001B7D104604211A46FFF780F97B689A68A9
:102070007B681B685B7D104605211A46FFF776F9E1
:102080007B689A687B681B689B7D104601211A4615
:10209000FFF76CF97B689A687B681B68DB7D1046EC
:1020A00008211A46FFF762F97B689A687B681B680B
:1020B0001B7E104609211A46FFF758F97B689A687B
:1020C0007B681B685B7E10460A211A46FFF74EF9B3
:1020D0007B681B681B7A002B05D07B689B681846C1
:1020E0000021FFF7B1FE7B681B685B7A002B05D0EF
:1020F0007B689B6818460221FFF7A6FE7B681B6879
:102100009B7A002B05D07B689B6818460321FFF75C
:102110009BFE7B681B68DB7A002B05D07B689B6885
:1021200018460421FFF790FE7B681B681B7B002B81
:1021300005D07B689B6818460521FFF785FE7B6804
:102140001B685B7B002B05D07B689B6818460121D0
:10215000FFF77AFE7B681B689B7B002B05D07B68B2
:102160009B6818460821FFF76FFE7B681B68DB7BC6
:10217000002B05D07B689B6818460921FFF764FE99
:102180007B681B681B7C002B05D07B689B6818460E
:102190000A21FFF759FE0837BD4680BD80B582B0E1
:1021A00000AF78607B681B6893F84C30002B0ED032
:1021B0007B681B68196D7B681B6893F854207B68EB
:1021C0001B689B6D084611461A46FEF7E1F87B68CE
:1021D0001B6893F85C30002B0ED07B681B68196E6F
:1021E0007B681B6893F864207B681B689B6E0846BD
:1021F00011461A46FEF7CCF87B681B6893F86C30E2
:10220000002B0ED07B681B68196F7B681B6893F8E6
:1022100074207B681B689B6F084611461A46FEF7C0
:10222000B7F87B681B6893F87C30002B10D07B6874
:102230001B68D3F880107B681B6893F884207B6848
:102240001B68D3F88830084611461A46FEF7A0F8F6
:102250000837BD4680BD00BF80B584B002AF78604E
:102260007B689A687B681B68DB69104601211A4607
:10227000FEF7ECFF7B689A687B681B681B6A104658
:1022800002211A46FEF7E2FF7B689A687B681B68AA
:102290005B6A104603211A46FEF7D8FF7B681B686D
:1022A00093F82830002B0ED07B6899687B681B68F8
:1022B00093F828207B681B6893F82930084611465C
:1022C0001A46FEF7EBFD7B681B6893F82A30002B5B
:1022D0000ED07B6899687B681B6893F82A207B681E
:1022E0001B6893F82B30084611461A46FEF704FE89
:1022F0007B681B6893F82C30002B09D07B689A68A8
:102300007B681B6893F82C3010461946FEF7D0FE08
:102310007B681B6893F82D30002B09D07B689A6886
:102320007B681B6893F82D3010461946FEF7A6FE11
:102330007B681B6893F82E30002B09D07B689A6865
:102340007B681B6893F82E3010461946FEF77CFE1A
:102350007B681B6893F82F30002B13D07B689A683A
:102360007B681B6893F82F3010461946FEF7F0FD86
:102370007B689A687B681B6893F830301046194672
:10238000FEF700FE7B681B6893F83130002B11D0FC
:102390007B6898687B681B6893F831107B681B68C2
:1023A00093F832207B681B6893F833300093032343
:1023B000FEF702FE7B681B6893F83730032B1AD1B7
:1023C0007B6899687B681B6893F839207B681B6879
:1023D00093F83830084611461A46FEF79BFE7B6894
:1023E0001B6893F83630002B05D07B689B68184635
:1023F0000F21FFF7EFFC7B681B6893F83430002B4C
:1024000005D17B681B6893F83530002B11D07B68B1
:1024100099687B681B681A6A7B681B685B6A084658
:1024200011461A46FEF7B0FE7B689B681846FEF719
:1024300059FE0837BD4680BD80B584B000AF7860D6
:102440000123FB737B681B7F012B03D07B681B7F01
:10245000032B17D17B685A687B685B7B1046194653
:10246000FFF7A4FC7B681B6893F82830002B04D18D
:102470007B689B681846FFF7BFFC7B6802221A77CF
:102480000023FB73FB7B18461037BD4680BD00BFA1
:1024900080B588B000AFF8600B467A60FB7201230C
:1024A000FB77FB681B7F002B36D07B6842F21072F3
:1024B000934231D8FB689B681846FFF7A9FC034696
:1024C0000133BB617B68C3F51C531033BA6902FB4F
:1024D00003F3144AA2FB03235B0B7B61FB6899683F
:1024E0007B699BB2FA7A084611461A46FEF726FF28
:1024F000FB685A68FB681B6910461946FFF796FC93
:10250000FB7A002B03D1FB687A685A6202E0FB6811
:102510007A689A620023FB77FB7F18462037BD4616
:1025200080BD00BF5917B7D180B400AF044BDB6842
:1025300003F4E0631B0A1846BD465DF8047B704750
:1025400000ED00E080B483B000AF0346FB7197F963
:102550000730002B0BDB084997F907305B09FA7944
:1025600002F01F02012000FA02F241F823200C378A
:10257000BD465DF8047B704700E100E080B483B0A5
:1025800000AF03463960FB7197F90730002B0ADB77
:102590000D4997F907303A68D2B29200D2B20B4493
:1025A00083F800230AE00949FB7903F00F03043B99
:1025B0003A68D2B29200D2B20B441A760C37BD46BA
:1025C0005DF8047B704700BF00E100E000ED00E033
:1025D00080B489B000AFF860B9607A60FB6803F03E
:1025E0000703FB61FB69C3F10703062B28BF062322
:1025F000BB61FB690633062B02D9FB69013B00E096
:1026000000237B61BB69012202FA03F35A1EBB68F7
:102610001A407B699A407B69012101FA03F3591E34
:102620007B680B40134318462437BD465DF8047B96
:10263000704700BF80B582B000AF78607B681B78C0
:102640005BB21846FFF77EFF0837BD4680BD00BF6E
:1026500090B583B000AF78607B681C78FFF764FFAB
:1026600001467B685B781A467B689B780846114672
:102670001A46FFF7ADFF024663B218461146FFF750
:102680007DFF7B68DB78002B02D07868FFF7D2FFF4
:10269000002318460C37BD4690BD00BF80B483B000
:1026A00000AF78607B68DB6843F480727B68DA6037
:1026B0000C37BD465DF8047B704700BF80B582B023
:1026C00000AF78607B685B7B83F00103DBB2002B9B
:1026D0000FD07B689A687B681B7B10461946FEF713
:1026E00069FB7B689B681846FFF7D8FF7B6801226F
:1026F0005A73002318460837BD4680BD80B582B0A6
:1027000000AF78607B6819687B681A7C7B6804334B
:10271000084611461A46FDF73BFE7B6819687B6840
:102720001A7C7B685B7C084611461A46FEF790FED1
:10273000002318460837BD4680BD00BF80B485B071
:1027400000AF78607B6803F00703FB600C4BDB682D
:10275000BB60BA684FF6FF031340BB60FB681A0208
:10276000BB68134343F0BF6343F40033BB60044AC8
:10277000BB68D3601437BD465DF8047B704700BF6B
:1027800000ED00E080B582B000AF0120FFF7D6FF7A
:1027900072B6214B214A9A60BFF34F8F62B61E4A30
:1027A0001D4BD3F8883043F47003C2F888301C4BBB
:1027B00003F5805314331B687B607B6823F00F03A1
:1027C0007B607B6843F004037B60154B03F580530B
:1027D00014337A681A60104A0F4B5B6923F01003B8
:1027E00053610D4A0C4B5B6923F0080353610A4A9D
:1027F000094B5B6A23F480335362074A064B5B6ADA
:1028000023F400335362044A034B5B6A23F48023AE
:1028100053620837BD4680BD00ED00E000000008AF
:102820000010005880B485B000AF78600023FB73BF
:102830007B6801221A70FB7B18461437BD465DF891
:10284000047B704780B400AF024B1846BD465DF86C
:10285000047B7047001BB700B0B586B000AF124BC9
:102860003C1D1D460FCD0FC42B6823603B1D184631
:10287000FDF75CFE0020FDF747FF0020FDF7FCFEA2
:102880000420FDF7CDFF01202021FEF731F80020C4
:10289000FDF706FF0120FDF7EBFF0120FDF7D4FF58
:1028A0001837BD46B0BD00BF842D000880B582B08A
:1028B00000AF78607B685B681B78002B0AD17B686F
:1028C0001B68002B02D07B681B6898477B685B689D
:1028D00001221A70002318460837BD4680BD00BF8C
:1028E00080B582B000AF0023FB712148FFF79AFF4B
:1028F0000346FB71FB79002B04D11E48FFF7D2FA87
:102900000346FB71FB79002B04D11B48FFF7F6FE51
:102910000346FB71FB79002B04D11848FFF7EEFE4C
:102920000346FB71FB79002B04D11548FFF7ECF847
:102930000346FB71FB79002B04D11248FFF788FE98
:102940000346FB71FB79002B04D10F48FFF7AEFF64
:102950000346FB71FB79002B04D10C48FFF7CEFE38
:102960000346FB71FB7918460837BD4680BD00BFA2
:102970006088FE1F1888FE1F482D00085C2D000887
:10298000C42B0008442D0008982D0008702D000865
:1029900080B483B000AF78600B46FB70FB780122F7
:1029A0009A407B685A600C37BD465DF8047B7047DF
:1029B00080B483B000AF78600B46FB70FB784FF4B7
:1029C00080329A407B685A600C37BD465DF8047BC4
:1029D000704700BF80B483B000AF78600B46FB70D7
:1029E000FB784FF001129A407B685A600C37BD4665
:1029F0005DF8047B704700BF80B483B000AF78609F
:102A00000B46FB707B685A6AFB7822FA03F303F0EB
:102A1000010318460C37BD465DF8047B704700BFC4
:102A200080B582B000AFFFF75BFF0346FB71FB7917
:102A3000002B00D0FEE72A4BD3ED007A9FED297AD8
:102A4000F4EEC77AF1EE10FA03DD254B264A1A6040
:102A50000BE0234BD3ED007AF5EEC07AF1EE10FADD
:102A600003D51F4B4FF000021A601D4BD3ED007AC7
:102A7000B0EE007AC7EE877AFCEEE77A17EE902A7E
:102A8000642303FB02F3194800211A46FFF700FDF7
:102A9000134BD3ED007AB0EE007AC7EE877A9FED44
:102AA000117A77EE677AFCEEE77A17EE902A6423C4
:102AB00003FB02F30D4801211A46FFF7E9FC0C481D
:102AC0000D21FFF799FF0346002B04D00948072189
:102AD000FFF75EFF03E007480721FFF769FFAAE75A
:102AE0005C88FE1F0000C8420000C8421888FE1F14
:102AF000008F02480080024880B500AF094B1B6878
:102B00000133084A136008480C21FFF763FF074BA5
:102B10005B68D3F800339BB25B089AB2044B1A800F
:102B200080BD00BF6C88FE1F00830248C42B0008D4
:102B30006888FE1F70B50E4B0E4CE41AA4100025D9
:102B40001E46A54204D056F8253098470135F8E7CF
:102B5000FEF7D4FF084C094BE41AA41000251E46CA
:102B6000A54204D056F8253098470135F8E770BDE6
:102B70006088FE1F6088FE1F6088FE1F6088FE1F41
:102B80000044004000480040004C0040005000401D
:102B900000002000000000000000000001FF000015
:102BA000902B00080000000000000081A82B000806
:102BB00000000000A000000000000000004800002D
:102BC00004000000A11B0008004400400040004039
:102BD00000000000000000000000000000000000F5
:102BE00000000000000000000000000000000000E5
:102BF00000000000000000000000000000000000D5
:102C000000000000000000000000000000000000C4
:102C100000000000000000000000000000000000B4
:102C200000000000010000000000000000000000A3
:102C3000000000000000000000440040D02B00080D
:102C40000100000000480040E42B000801000000E3
:102C5000004C0040F82B000801000000005000402C
:102C60000C2C000801000000000000000000000023
:102C70002000000001000000000000001C00000017
:102C8000010000000000010000000100000001033D
:102C90003F00000024000000002400009800000015
:102CA0000000010004000000980000000000010086
:102CB0000400000001000F0E100E100E01000000B5
:102CC0000000000000020000000002000000000000
:102CD000842C0008882C00088C2C000800000000C0
:102CE00000000000000000000000010301000000DF
:102CF00000000004902C000801000000742C000863
:102D00000100000000800248050000009C2C000823
:102D100000000000000000000000000000000000B3
:102D200001000000008002480A000000A82C0008F2
:102D30000000000000000000000000000000000093
:102D40004C88FE1F133F00010080024880000000F5
:102D5000010000000000000007000000008F024892
:102D60000000000000000000000000000D00000056
:102D70000083024880000000000001000000000005
:102D80000C00000030020101000001000000000002
:102D90000000010002010101000000006488FE1F24
:082DA000008E02480000000053
:102DA800F51C0008382C0008442C0008502C00089A
:102DB8005C2C000802000000B42C0008000002404F
:102DC80000010240000000000100000002000000B5
:102DD80004000000000000000000000000000000E7
:102DE80000000000000000000000000000449508FA
:102DF80000010000000002400000000000004842FE
:0400000508000201EC
:00000001FF
